:1000000045C00000FEC500008CC600001AC70000F5
:10001000AEC7000059C0000057C0000055C0000026
:1000200053C0000051C000004FC000004DC0000090
:100030004BC0000049C0000047C0000045C00000A0
:1000400043C0000041C000003FC000003DC00000B0
:100050003BC0000039C0000037C0000035C00000C0
:1000600033C0000031C000002FC000002DC00000D0
:100070002BC0000029C0000027C0000025C00000E0
:1000800023C0000021C000001FC0000011241FBEBB
:10009000CFEFD0E1DEBFCDBF11E0A0E0B1E0E4E101
:1000A000F7E100E00BBF02C007900D92AA38B1073C
:1000B000D9F721E0AAE8B1E001C01D92A33EB20742
:1000C000E1F7FAD30C94880B9BCF61ED71E003D07C
:1000D00081ED91E00895CF92DF92EF92FF920F931E
:1000E0001F93CF93DF93CDB7DEB728970FB6F89461
:1000F000DEBF0FBECDBF8B01FC01608171818281AB
:10010000938120E831E541E050E00E942B0B69012A
:100110007A012CE330E040E050E00E944D0B29834F
:100120003A834B835C8389819A81AB81BC81F801DE
:1001300060836CE370E07ED7DC01CB01F801A18322
:100140008283C601069667E070E087D784832DEA34
:100150003EE840E050E0C701B6010E944D0B298304
:100160003A836D837E838F83988789819A8124E681
:10017000289F6001299FD00C11246D817E818F8181
:10018000988525EB35E040E050E00E944D0B298337
:100190003A836D837E83E980FA80EE0CFF1CEE0CBF
:1001A000FF1CEC0CFD1C8D819E81F5E6EF16F10421
:1001B00010F0019604C024E6E216F10419F021E0E3
:1001C00030E002C020E030E0A90144595E4F4817FA
:1001D000590760F46DE671E0821B930B2BD7DC01AD
:1001E000CB01E80EF91ECD0120E030E044E6E40E3C
:1001F000F11CF801F782E68291878087255C3F4FEA
:100200008217930740F46FE170E014D7DC01CB0153
:10021000F80185831FC069E970E0821B930B0AD740
:10022000DC01CB01F82EFF0CFF0CF80E6DE370E043
:10023000CD0100D7DC01CB01E82EEE0C6FE170E0C0
:10024000CD01F8D6DC01CB0122E0280FF20EFE0C26
:10025000F801F582A383F8011386128683818F5FEC
:10026000838328960FB6F894DEBF0FBECDBFDF9113
:10027000CF911F910F91FF90EF90DF90CF90089555
:10028000CF92DF92EF92FF920F931F93CF93DF9362
:1002900000D000D0CDB7DEB78C01A8D069837A83B7
:1002A0008B839C83F8018285938597FF0EC0E09134
:1002B000E101F091E201309741F06DED71E0CE0186
:1002C00001960995F80193878287F80182859385C5
:1002D0001816190694F4092E000CAA0BBB0B4981C1
:1002E0005A816B817C816A017B01C81AD90AEA0AAA
:1002F000FB0AC982DA82EB82FC8289819A81AB8116
:10030000BC814091DD015091DE016091DF0170916F
:10031000E001841B950BA60BB70B89839A83AB83F3
:10032000BC83B801CE01019611D069817A818B819D
:100330009C810F900F900F900F90DF91CF911F91A4
:100340000F91FF90EF90DF90CF900895CF92DF92C2
:10035000EF92FF920F931F93CF93DF9300D000D0C3
:10036000CDB7DEB76C017B01E091E101F091E201D4
:10037000309729F06DED71E009958C0102C00FEF07
:100380001FEFF60140815181628173818091DD010F
:100390009091DE01A091DF01B091E001840F951FE3
:1003A000A61FB71F101611064CF4A801012E000C51
:1003B000660B770B840F951FA61FB71F89839A833F
:1003C000AB83BC83B701CE01019685DEF7011387AD
:1003D00002870F900F900F900F90DF91CF911F9198
:1003E0000F91FF90EF90DF90CF9008958F929F92A2
:1003F000AF92BF92CF92DF92EF92FF920F931F9333
:10040000CF93DF93EC01EE81FF818F010456110938
:10041000B1F0CF01855691096C0197FF03C023E02D
:10042000C20ED11CD594C794D594C7946CE97FEFC4
:1004300001D6C60ED71E8FEFC81AD80A02C0C12C2B
:10044000D12C2DE631E0D8010E94690B0D2C000C57
:10045000EE08FF08C60ED71EE81EF91E8B81082E77
:10046000000C990B8C01015011092D8122302CF4C4
:10047000222369F1015E1F4F2AC0CF018459984F92
:100480006BD0282F30E0255C3F4F200F311F8D812E
:10049000082E000C990B02978530910514F0275611
:1004A0003F4F65E070E0C6D5AC0197FF02C04F5FDB
:1004B0005F4F559547959DE3949F8001959F100D43
:1004C0001124020F131F80FF02C0015E1F4FC801DD
:1004D000110FAA0BBB0B9C01AD012C0D3D1D4E1D38
:1004E0005F1D60E871E581E090E00E941C0B4B010C
:1004F0005C01AA810A2E000CBB0B20E13EE00E94A9
:10050000690B6B017C01A9810A2E000CBB0B2CE34B
:1005100030E00E94690BC60ED71EE81EF91E6881E6
:10052000862F660F990BAA0BBB0B8C0D9D1DAE1D64
:10053000BF1DBC01CD01680D791D8A1D9B1DDF917A
:10054000CF911F910F91FF90EF90DF90CF90BF90D0
:10055000AF909F908F9008959C0123703327232B99
:1005600051F464E670E066D5892B39F4637077271F
:1005700081E0672B19F080E0089581E008951ABAB0
:10058000A898A99AAA9A85E08A95F1F7000089B3FC
:1005900095E09A95F1F70000AA989FEF9ABB95E035
:1005A0009A95F1F700000895A898A998AA9A8BBB8C
:1005B00085E08A95F1F70000AA9885E08A95F1F721
:1005C00000000895CF93C82F04C085E08A95F1F705
:1005D0000000D5DF8823CCF3A898A998AA9ACBBBB2
:1005E00085E08A95F1F70000AA9885E08A95F1F7F1
:1005F0000000CF91089590E4899F600D1124862F0B
:100600008068E0CF08952FEF81EE94E02150804084
:100610009040E1F700C0000088E3C6DF8FE39CE96B
:100620000197F1F700C0000088E3BEDF8FE193E09F
:100630000197F1F700C0000088E3B6DF8FE193E097
:100640000197F1F700C0000088E3BCDF8CE0BADF5F
:1006500081E0B8CF0895CF93C82F04C085E08A9574
:10066000F1F700008CDF8823CCF3A89AA998AA9A06
:10067000CBBB85E08A95F1F70000AA9885E08A95C2
:10068000F1F70000CF910895CF93DF93EC018881BB
:10069000882329F02196DFDF89918111FCCFDF913A
:1006A000CF910895CF93DF9380E88CDF84E991E0C8
:1006B0000CDDEC018B81282F082E000C330B3F93AF
:1006C0008F938D81082E000C990B01969F938F9329
:1006D0008E819F818459984F9F938F9386E191E0FB
:1006E0009F938F9388E991E09F938F93CAD488E971
:1006F00091E0CADF80EC66DF8A812DB73EB7265FC6
:100700003F4F0FB6F8943EBF0FBE2DBF8D307CF02B
:10071000082E000C990B0C974881042E000C550BE9
:100720002981022E000C330B63E171E00DC0082E0D
:10073000000C990B4881042E000C550B2981022EC8
:10074000000C330B60E171E05F934F933F932F9365
:100750009F938F937F936F9384E291E09F938F9306
:1007600088EA91E09F938F938CD488EA91E08CDFA4
:100770008DB79EB70C960FB6F8949EBF0FBE8DBF77
:10078000DF91CF9108950F931F93CF93DF93CDB750
:10079000DEB761970FB6F894DEBF0FBECDBFFE0186
:1007A000319681E1DF011D928A95E9F780E80ADF41
:1007B00082E491E069DF80EC05DF8091B9019091DE
:1007C000BA018D309105A4F10C9720918C013091E4
:1007D0008D01232BE1F11AC05F934F936F937F93A9
:1007E0009F938F933F932F9383E591E09F938F93F4
:1007F0008E010F5F1F4F1F930F9343D4C80144DF37
:100800000FB6F894DEBF0FBECDBF2AC07091CF01E6
:100810006091D0014FE351E023E131E0DDCF7091F1
:10082000CF016091D0014FE351E020E131E0D4CF1E
:1008300020918C0130918D01232B89F77091CF018C
:100840006091D0014BE351E020E131E0C5CF7091E0
:10085000CF016091D0014BE351E023E131E0BCCF07
:1008600061960FB6F894DEBF0FBECDBFDF91CF917A
:100870001F910F91089584E991E027DCFC0122810A
:10088000022E000C330B4091B9015091BA0124178C
:10089000350779F42181022E000C330B81E090E0C2
:1008A0004091CF015091D0012417350721F080E00D
:1008B000089580E090E00895CF93DF93CDB7DEB741
:1008C00060970FB6F894DEBF0FBECDBF84E690E010
:1008D00098878F831E8211E01C831B821A821982E3
:1008E0008FEF9FEF9C878B87CE010196C9DC6093C9
:1008F00094017093950180939601909397018FEFE7
:100900008ABB84BB11BA17BB8FE089BF8AEA809388
:100910006A00789478DE0F2EF3E0AF2EB12CF02D24
:100920009924939444244394512C0F2EF7E7CF2E0F
:10093000F1E0DF2EF02D0F2EFBEBEF2EF1E0FF2E7E
:10094000F02D7E2C8F2C84990AC080919201909179
:100950009301892B21F4B0929301A09292018BDF35
:10096000892B71F080918C0190918D01892B41F040
:1009700098BA60E080E03FDE84E691E085DE01C069
:1009800018BA80919201909193010097A9F48091F7
:10099000940190919501A0919601B09197010196D3
:1009A000A11DB11D8093940190939501A093960190
:1009B000B093970177DE1BC18130910509F052C0D9
:1009C00080E800DE88E991E05FDE80ECFBDD88EA0C
:1009D00091E05ADE2FEF89E698E121508040904067
:1009E000E1F700C00000E0919001F0919101EC5F0F
:1009F000FE4F008110E0818190E08017910744F163
:100A0000B8016F707078772334F461507109606FAA
:100A10007F6F6F5F7F4FC80111230CF40F96959580
:100A20008795959587959595879595958795E3DD18
:100A300081E591E029DE0F5F1F4FE0919001F09179
:100A40009101EC5FFE4F818190E080179107C4F621
:100A5000EFEFF9E628E1E150F0402040E1F700C077
:100A60000000C5C08330910509F084C01D861E8634
:100A70001F86188ACE010D9628DB8C0180E8A2DD46
:100A800088E691E001DE80EC9DDDF8018081282F71
:100A9000082E000C330B3F938F938181282F082E53
:100AA000000C330B3F938F93DF92CF92FF92EF9224
:100AB000E8D2C701E9DD0FB6F894DEBF0FBECDBFA7
:100AC0008299FECF9FEFE9E6F8E19150E040F040D7
:100AD000E1F700C00000829B3DC0CE010D96F5DA23
:100AE0008C0180E86FDD88E691E0CEDD80EC6ADD88
:100AF000F8018081282F082E000C330B3F938F9331
:100B00008181282F082E000C330B3F938F93DF92A7
:100B1000CF92FF92EF92B5D2872D982DB5DD8D85BE
:100B20009E85AF85B8890196A11DB11D8D879E87D1
:100B3000AF87B88BFFEF21EE84E0F150204080407A
:100B4000E1F700C000000FB6F894DEBF0FBECDBFC6
:100B50008299C3CF10929301109292018299FECF95
:100B6000FFEF27EA81E6F15020408040E1F700C026
:100B700000003DC00297D9F506DE9FEFE9E6F8E1F7
:100B80009150E040F040E1F700C00000E0918E019C
:100B9000F0918F01EE0FFF1FE050FF4F008110E03A
:100BA000818190E080179107ACF0602F892D23DDC3
:100BB00081E591E069DD0F5F1F4FE0918E01F091BB
:100BC0008F01EE0FFF1FE050FF4F818190E08017F3
:100BD00091075CF72FEF89E698E121508040904023
:100BE000E1F700C0000050928B0140928A01EFEFC4
:100BF000F1EE24E0E150F0402040E1F700C00000B9
:100C0000A2CE1F920F920FB60F9211240BB60F9225
:100C10002F933F934F935F936F937F938F939F9304
:100C2000AF93BF93EF93FF93CF93DF93CDB7DEB72F
:100C30002C97DEBFCDBF80919201909193018130BE
:100C40009105D1F584E991E040DA9C012A5F3F4F9C
:100C50003A832983215031093C832B832250310967
:100C60003E832D832150310938872F83215031094C
:100C70003A8729879C878B87209190013091910139
:100C8000332314F42F5F3F4F2E7FFE01E20FF31F3B
:100C90000180F281E02D208131812F5F3F4F318330
:100CA0002083EEDA6093940170939501809396010E
:100CB00090939701F7DC1AC00297C1F489EB91E099
:100CC0009A8389838FEC91E09C838B83E0918E01E2
:100CD000F0918F01EE0FFF1FEC0FFD1F0180F281DD
:100CE000E02D808191810196918380832C960FB6AF
:100CF000F894DEBF0FBECDBFDF91CF91FF91EF9192
:100D0000BF91AF919F918F917F916F915F914F9123
:100D10003F912F910F900BBE0F900FBE0F901F9021
:100D200018951F920F920FB60F9211240BB60F92C7
:100D30002F933F934F935F936F937F938F939F93E3
:100D4000AF93BF93EF93FF93CF93DF93CDB7DEB70E
:100D50002C97DEBFCDBF809192019091930181309D
:100D60009105D1F584E991E0B0D99C012A5F3F4F0C
:100D70003A832983215031093C832B832250310946
:100D80003E832D832150310938872F83215031092B
:100D90003A8729879C878B87209190013091910118
:100DA000332314F42F5F3F4F2E7FFE01E20FF31F1A
:100DB0000180F281E02D2081318121503109318380
:100DC00020835EDA6093940170939501809396017D
:100DD0009093970167DC1AC00297C1F489EB91E008
:100DE0009A8389838FEC91E09C838B83E0918E01C1
:100DF000F0918F01EE0FFF1FEC0FFD1F0180F281BC
:100E0000E02D808191810197918380832C960FB68C
:100E1000F894DEBF0FBECDBFDF91CF91FF91EF9170
:100E2000BF91AF919F918F917F916F915F914F9102
:100E30003F912F910F900BBE0F900FBE0F901F9000
:100E400018951F920F920FB60F9211242F933F9374
:100E50005F936F937F938F939F93AF93BF93CF9342
:100E6000DF9300D0CDB7DEB71A82198282991BC0FA
:100E70008091920190919301039709F460C0898158
:100E80009A8101969A8389838FE99FE00197F1F710
:100E900000C00000829907C0809192019091930157
:100EA000039769F74CC089819A81893E934080F00D
:100EB00083994BC08091920190919301892B09F005
:100EC00044C082E090E090939301809392013DC0F2
:100ED000809192019091930181309105B1F48091BC
:100EE00090019091910102966CE070E0A3D09093F4
:100EF0009101809390018FEF95EA2EE08150904010
:100F00002040E1F700C0000020C00297F1F481E02A
:100F100090E020918E0130918F01232B11F080E021
:100F200090E090938F0180938E018FEF95EA2EE0F1
:100F3000815090402040E1F700C0000006C0898148
:100F40009A81893E934008F0B3CF0F900F90DF91C4
:100F5000CF91BF91AF919F918F917F916F915F9151
:100F60003F912F910F900FBE0F901F9018951F92D9
:100F70000F920FB60F9211242F938F939F93CF93BD
:100F8000DF9300D0CDB7DEB71A82198283990DC0E6
:100F900089819A8101969A8389838FE99FE00197DD
:100FA000F1F700C00000839BF3CF89819A81893ECD
:100FB000934068F08091920190919301892B71F593
:100FC00081E090E0909393018093920127C08091FB
:100FD0009201909193018130910551F489819A8118
:100FE000893C9105D8F0109293011092920116C09D
:100FF0000297A1F480918A0190918B01892B71F065
:1010000010928B0110928A0181E090E090938D0103
:1010100080938C0110929301109292010F900F9087
:10102000DF91CF919F918F912F910F900FBE0F90D5
:101030001F90189597FB072E16F4009406D077FDA5
:1010400008D00BD007FC05D03EF4909581959F4FBA
:101050000895709561957F4F0895AA1BBB1B51E1C0
:1010600007C0AA1FBB1FA617B70710F0A61BB70B18
:10107000881F991F5A95A9F780959095BC01CD01BD
:1010800008950F931F93CF93DF93CDB7DEB72E97BD
:101090000FB6F894DEBF0FBECDBF0D891E8986E066
:1010A0008C831A8309838FEF9FE79E838D83AE0124
:1010B000475E5F4F6F89788DCE01019610D0EF812A
:1010C000F885E00FF11F10822E960FB6F894DEBF60
:1010D0000FBECDBFDF91CF911F910F9108952F9239
:1010E0003F924F925F926F927F928F929F92AF92B8
:1010F000BF92CF92DF92EF92FF920F931F93CF9305
:10110000DF93CDB7DEB72B970FB6F894DEBF0FBED7
:10111000CDBF6C017B018A01FC011782168283819D
:1011200081FFBFC1CE0101963C01F6019381F70119
:1011300093FD859193FF81917F01882309F4ADC1CF
:10114000853239F493FD859193FF81917F0185323A
:1011500021F4B60190E0D6D1E8CF912C212C312C8E
:10116000FFE1F315D8F08B3279F038F4803279F062
:101170008332A1F4232D20611DC08D3261F08033B4
:1011800069F4232D216016C0832D8260382EE32D53
:10119000E4603E2E2AC0F32DF8601DC037FC2DC040
:1011A00020ED280F2A3040F08E32B9F436FC75C19C
:1011B000232D2064322E19C036FE06C08AE0989E88
:1011C000200D1124922E11C0EAE02E9E200D112434
:1011D000222EF32DF0623F2E08C08C3621F4832D91
:1011E0008068382E02C0883641F4F70193FD85915E
:1011F00093FF81917F018111B3CF982F9F7D9554EB
:10120000933028F40C5F1F4F9FE399830DC0833602
:1012100031F0833771F0833509F055C020C0F801F3
:10122000808189830E5F1F4F88248394912C530102
:1012300012C02801F2E04F0E511CF801A080B180CD
:1012400036FE03C0692D70E002C06FEF7FEFC5016D
:101250004ED14C018201F32DFF773F2E15C028019E
:1012600022E0420E511CF801A080B18036FE03C07E
:10127000692D70E002C06FEF7FEFC5012DD14C01E9
:10128000F32DF0683F2E820133FC19C0822D90E0CF
:1012900088169906A0F4B60180E290E033D12A9432
:1012A000F5CFF50137FC859137FE81915F01B601DD
:1012B00090E028D121102A9421E0821A910881140B
:1012C000910479F7E1C0843611F0893639F5F801D7
:1012D00037FE07C060817181828193810C5F1F4F4F
:1012E00008C060817181072E000C880B990B0E5F7E
:1012F0001F4FF32DFF763F2E97FF09C090958095E5
:10130000709561957F4F8F4F9F4FF0683F2E2AE079
:1013100030E0A30133D1882E861844C0853731F4DC
:10132000232D2F7EB22E2AE030E025C0932D997F09
:10133000B92E8F36C1F018F4883579F0AEC08037F9
:1013400019F0883721F0A9C0E92FE061BE2EB4FE64
:101350000DC0FB2DF460BF2E09C034FE0AC0292F3A
:101360002660B22E06C028E030E005C020E130E063
:1013700002C020E132E0F801B7FE07C06081718150
:10138000828193810C5F1F4F06C06081718180E074
:1013900090E00E5F1F4FA301F1D0882E8618FB2D21
:1013A000FF773F2E36FE0DC0232D2E7FA22E8914EF
:1013B00058F434FE0BC032FC09C0832D8E7EA82E5B
:1013C00005C0B82CA32C03C0B82C01C0B92CA4FEB6
:1013D0000FC0FE01E80DF11D8081803321F49A2DAC
:1013E000997EA92E09C0A2FE06C0B394B39404C08E
:1013F0008A2D867809F0B394A3FC10C0A0FE06C025
:10140000B21480F4280C922C9B180DC0B21458F41E
:10141000B60180E290E076D0B394F8CFB21418F41D
:101420002B1802C0982C212CA4FE0FC0B60180E31B
:1014300090E068D0A2FE16C0A1FC03C088E790E04F
:1014400002C088E590E0B6010CC08A2D867851F084
:10145000A1FE02C08BE201C080E2A7FC8DE2B601D2
:1014600090E050D0891430F4B60180E390E04AD087
:101470009A94F8CF8A94F301E80DF11D8081B601AA
:1014800090E040D08110F6CF222009F44ECEB60174
:1014900080E290E037D02A94F7CFF60186819781D9
:1014A00002C08FEF9FEF2B960FB6F894DEBF0FBEF2
:1014B000CDBFDF91CF911F910F91FF90EF90DF9003
:1014C000CF90BF90AF909F908F907F906F905F90E4
:1014D0004F903F902F900895FC010590615070400F
:1014E0000110D8F7809590958E0F9F1F0895FC01ED
:1014F0006150704001900110D8F7809590958E0F43
:101500009F1F08950F931F93CF93DF93FB012381B8
:1015100021FD03C08FEF9FEF2CC022FF16C0468134
:101520005781248135814217530744F4A081B1814A
:101530009D012F5F3F4F318320838C93268137811C
:101540002F5F3F4F3783268314C08B01EC01FB01D3
:101550000084F185E02D0995892BE1F6D8011696D6
:101560008D919C911797019617969C938E93169741
:10157000CE01DF91CF911F910F910895FA01AA2713
:10158000283051F1203181F1E8946F936E7F6E5FC6
:101590007F4F8F4F9F4FAF4FB1E03ED0B4E03CD074
:1015A000670F781F891F9A1FA11D680F791F8A1F57
:1015B000911DA11D6A0F711D811D911DA11D20D0BE
:1015C00009F468943F912AE0269F11243019305D78
:1015D0003193DEF6CF010895462F4770405D419369
:1015E000B3E00FD0C9F7F6CF462F4F70405D4A33B6
:1015F00018F0495D31FD4052419302D0A9F7EACF7E
:10160000B4E0A6959795879577956795BA95C9F7AC
:1016100000976105710508959B01AC010A2E06949F
:101620005795479537952795BA95C9F7620F731F58
:10163000841F951FA01D0895DB018F939F934FD0AA
:10164000BF91AF91A29F800D911DA39F900DB29F5E
:10165000900D11240895A1E21A2EAA1BBB1BFD01B7
:101660000DC0AA1FBB1FEE1FFF1FA217B307E40781
:10167000F50720F0A21BB30BE40BF50B661F771FD9
:10168000881F991F1A9469F76095709580959095B9
:101690009B01AC01BD01CF010895052E97FB16F407
:1016A00000940FD057FD05D0D6DF07FC02D046F4DA
:1016B00008C050954095309521953F4F4F4F5F4F53
:1016C000089590958095709561957F4F8F4F9F4FAE
:1016D00008950FD0B7FF0895821B930B089509D08A
:1016E000A59F900DB49F900DA49F800D911D112476
:1016F0000895A29FB001B39FC001A39F700D811DEB
:101700001124911DB29F700D811D1124911D08950A
:04171000F894FFCF7B
:101714000405070801040607090A141517181A1BFB
:10172400414D00504D002025642D253032642D2577
:101734003032640020257320253032643A2530325B
:10174400643A2530326420202020004F4646004F62
:101754004E0020414C41524D205345542E2E202002
:1017640020200020257320253032643A253032644D
:10177400202573006A6E6A002053544F502057612D
:101784007463682E2E200020253032643A253032CE
:0A179400642873656329202000001B
:00000001FF
