:1000000045C0000090C200005EC000005CC000005F
:100010005AC0000058C0000056C0000054C0000084
:1000200052C0000050C000004EC000004CC0000094
:100030004AC0000048C0000046C0000044C00000A4
:1000400042C0000040C000003EC000003CC00000B4
:100050003AC0000038C0000036C0000034C00000C4
:1000600032C0000030C000002EC000002CC00000D4
:100070002AC0000028C0000026C0000024C00000E4
:1000800022C0000020C000001EC0000011241FBEBE
:10009000CFEFD0E1DEBFCDBF11E0A0E0B1E0EEEAEE
:1000A000FCE000E00BBF02C007900D92AA34B1073C
:1000B000D9F721E0AAE4B1E001C01D92A235B20750
:1000C000E1F736D1F2C59CCF1ABAA898A99AAA9A94
:1000D00085E08A95F1F7000089B395E09A95F1F7EC
:1000E0000000AA989FEF9ABB95E09A95F1F700005F
:1000F0000895A898A998AA9A8BBB85E08A95F1F7EC
:100100000000AA9885E08A95F1F700000895CF9342
:10011000C82F04C085E08A95F1F70000D5DF882359
:10012000CCF3A898A998AA9ACBBB85E08A95F1F759
:100130000000AA9885E08A95F1F70000CF91089514
:100140002FEF81EE94E0215080409040E1F700C015
:10015000000088E3CEDF8FE39CE90197F1F700C050
:10016000000088E3C6DF8FE193E00197F1F700C05C
:10017000000088E3BEDF8FE193E00197F1F700C054
:10018000000088E3C4DF8CE0C2DF81E0C0CF0895C7
:10019000CF93C82F04C085E08A95F1F7000094DF63
:1001A0008823CCF3A89AA998AA9ACBBB85E08A9514
:1001B000F1F70000AA9885E08A95F1F70000CF9149
:1001C0000895CF93DF93EC018881882329F021964D
:1001D000DFDF89918111FCCFDF91CF9108950F93DB
:1001E0001F93CF93DF93EC010AE010E018D2B8011F
:1001F000A8D10F96ECE4F1E040E050E0C417D50739
:1002000049F0218130E0281B390B2E5F3F4F25300C
:10021000310538F04F5F5F4F32964330510571F72B
:1002200003C04330510511F7DF91CF911F910F911A
:100230000895ECE4F1E081818150818383818150D4
:10024000838385818150858308950F931F93CF9376
:10025000DF93CCE4D1E002E511E08981803170F4D4
:10026000988120E4929F800D1124806850DF88815E
:10027000811102C08AE201C089E48ADF2296C01798
:10028000D10759F7DF91CF911F910F910895EF9208
:10029000FF920F931F93CF93DF93CCE4D1E000E064
:1002A00010E07E0189818F3F79F4B9D18170907817
:1002B000992324F401978E6F9F6F0196F701808335
:1002C000C8018DDFF70181830F5F1F4F2296033036
:1002D000110539F7DF91CF911F910F91FF90EF90AA
:1002E0000895EF92FF920F931F93CF93DF930CE447
:1002F00011E0C0E0D0E0CE0172DF7801F801818327
:100300008ED181709078992324F401978E6F9F6F1E
:100310000196F701808321960E5F1F4FC330D105F0
:1003200051F7DF91CF911F910F91FF90EF900895BA
:10033000CF93DF93CDB7DEB761970FB6F894DEBFEA
:100340000FBECDBF8FEF8ABB84BB81E089BF83E046
:1003500080936A0086E0ECE4F1E0DF011D928A956B
:10036000E9F7BFDF7894ECDEA12CB12C00E010E0BF
:100370000F2EF4E06F2EF1E07F2EF02D8824839471
:10038000912C0F2EF2E5EF2EF1E0FF2EF02DFE0165
:1003900031962F010F2EF9E12F2EF1E03F2EF02D97
:1003A00080E8B5DE88E491E00CDF80ECB0DE88E424
:1003B00091E007DFD3018C918295880F880F807CB4
:1003C0008068A5DE86E091E0FCDE809104019091DA
:1003D0000501892BB1F480914A0190914B019C0158
:1003E0002F5F3F4F30934B0120934A018135910598
:1003F00044F0909205018092040110924B011092FA
:100400004A010333110534F042DF13DF1EDFC12C34
:10041000D12C16C06801B2E0CB0ED11C0F5F1F4F6C
:10042000093211056CF081EC72DE8AE391E0C9DEDD
:1004300081E86DDE8AE391E0C4DEEFEFAE1ABE0A1A
:100440002091040130910501ECE4F1E081818111FA
:1004500038C0808190E08217930799F5D201E1E1DD
:100460001D92EA95E9F780E852DE88E091E0A9DE86
:1004700080EC4DDEBF92AF923F922F925F924F92EF
:10048000DCD0C2019EDE90920501809204011092A0
:100490004B0110924A0125DFFFEF2BE782E9F15073
:1004A00020408040E1F700C00000CFDE0F900F90A9
:1004B0000F900F900F900F90A12CB12CC12CD12C2C
:1004C0002AC03296EE15FF0509F0C0CF95EFA916A8
:1004D00091E0B90604F180E81ADE88E291E071DE6D
:1004E00080EC15DE89E391E06CDEAFEFBBE7E2E97B
:1004F000A150B040E040E1F700C00000909205013B
:100500008092040110924B0110924A01EADEA12C64
:10051000B12CC12CD12C8FE39CE90197F1F700C0DD
:10052000000086013DCF1F920F920FB60F9211244B
:1005300010920501109204010F900FBE0F901F90B2
:10054000189597FB072E16F4009406D077FD08D077
:100550000BD007FC05D03EF4909581959F4F0895F0
:10056000709561957F4F0895AA1BBB1B51E107C091
:10057000AA1FBB1FA617B70710F0A61BB70B881F33
:10058000991F5A95A9F780959095BC01CD010895C2
:100590008F929F92AF92BF92CF92DF92EF92FF9293
:1005A000CF93DF93EC01688179818A819B8161150A
:1005B00071058105910521F464E279ED8BE597E001
:1005C0002DE133EF41E050E013D349015A019B0183
:1005D000AC01A7EAB1E428D36B017C01ACEEB4EF27
:1005E000A50194012DD3DC01CB018C0D9D1DAE1D09
:1005F000BF1DB7FF03C00197A109B0488883998345
:10060000AA83BB839F77DF91CF91FF90EF90DF901C
:10061000CF90BF90AF909F908F900895B9CF80E01A
:1006200091E0B6CFA0E0B0E080930001909301018B
:10063000A0930201B093030108950F931F93CF93EA
:10064000DF93CDB7DEB72E970FB6F894DEBF0FBE9F
:10065000CDBF0D891E8986E08C831A8309838FEFB5
:100660009FE79E838D83AE01475E5F4F6F89788DD4
:10067000CE01019610D0EF81F885E00FF11F1082B6
:100680002E960FB6F894DEBF0FBECDBFDF91CF918F
:100690001F910F9108952F923F924F925F926F9208
:1006A0007F928F929F92AF92BF92CF92DF92EF9202
:1006B000FF920F931F93CF93DF93CDB7DEB72B97A6
:1006C0000FB6F894DEBF0FBECDBF6C017B018A016F
:1006D000FC0117821682838181FFBFC1CE01019682
:1006E0003C01F6019381F70193FD859193FF819180
:1006F0007F01882309F4ADC1853239F493FD8591DA
:1007000093FF81917F01853221F4B60190E0D6D12B
:10071000E8CF912C212C312CFFE1F315D8F08B324E
:1007200079F038F4803279F08332A1F4232D2061FE
:100730001DC08D3261F0803369F4232D216016C015
:10074000832D8260382EE32DE4603E2E2AC0F32DE7
:10075000F8601DC037FC2DC020ED280F2A3040F076
:100760008E32B9F436FC75C1232D2064322E19C0A7
:1007700036FE06C08AE0989E200D1124922E11C0EC
:10078000EAE02E9E200D1124222EF32DF0623F2E42
:1007900008C08C3621F4832D8068382E02C088363C
:1007A00041F4F70193FD859193FF81917F018111C0
:1007B000B3CF982F9F7D9554933028F40C5F1F4F33
:1007C0009FE399830DC0833631F0833771F0833511
:1007D00009F055C020C0F801808189830E5F1F4F4A
:1007E00088248394912C530112C02801F2E04F0E0B
:1007F000511CF801A080B18036FE03C0692D70E065
:1008000002C06FEF7FEFC5014ED14C018201F32D85
:10081000FF773F2E15C0280122E0420E511CF8013F
:10082000A080B18036FE03C0692D70E002C06FEF7A
:100830007FEFC5012DD14C01F32DF0683F2E8201D1
:1008400033FC19C0822D90E088169906A0F4B601F9
:1008500080E290E033D12A94F5CFF50137FC859101
:1008600037FE81915F01B60190E028D121102A94D2
:1008700021E0821A91088114910479F7E1C084364D
:1008800011F0893639F5F80137FE07C060817181B2
:10089000828193810C5F1F4F08C060817181072E98
:1008A000000C880B990B0E5F1F4FF32DFF763F2E28
:1008B00097FF09C090958095709561957F4F8F4FF8
:1008C0009F4FF0683F2E2AE030E0A30133D1882EFD
:1008D000861844C0853731F4232D2F7EB22E2AE0AE
:1008E00030E025C0932D997FB92E8F36C1F018F4D2
:1008F000883579F0AEC0803719F0883721F0A9C06B
:10090000E92FE061BE2EB4FE0DC0FB2DF460BF2EBA
:1009100009C034FE0AC0292F2660B22E06C028E086
:1009200030E005C020E130E002C020E132E0F80113
:10093000B7FE07C060817181828193810C5F1F4F78
:1009400006C06081718180E090E00E5F1F4FA301BF
:10095000F1D0882E8618FB2DFF773F2E36FE0DC076
:10096000232D2E7FA22E891458F434FE0BC032FCA6
:1009700009C0832D8E7EA82E05C0B82CA32C03C0E1
:10098000B82C01C0B92CA4FE0FC0FE01E80DF11D6A
:100990008081803321F49A2D997EA92E09C0A2FE70
:1009A00006C0B394B39404C08A2D867809F0B3943A
:1009B000A3FC10C0A0FE06C0B21480F4280C922C38
:1009C0009B180DC0B21458F4B60180E290E076D0C6
:1009D000B394F8CFB21418F42B1802C0982C212C21
:1009E000A4FE0FC0B60180E390E068D0A2FE16C05E
:1009F000A1FC03C088E790E002C088E590E0B60162
:100A00000CC08A2D867851F0A1FE02C08BE201C095
:100A100080E2A7FC8DE2B60190E050D0891430F45A
:100A2000B60180E390E04AD09A94F8CF8A94F3011B
:100A3000E80DF11D8081B60190E040D08110F6CF25
:100A4000222009F44ECEB60180E290E037D02A94FD
:100A5000F7CFF6018681978102C08FEF9FEF2B962B
:100A60000FB6F894DEBF0FBECDBFDF91CF911F91BF
:100A70000F91FF90EF90DF90CF90BF90AF909F903D
:100A80008F907F906F905F904F903F902F90089540
:100A9000FC010590615070400110D8F78095909549
:100AA0008E0F9F1F0895FC0161507040019001104E
:100AB000D8F7809590958E0F9F1F08950F931F93E1
:100AC000CF93DF93FB01238121FD03C08FEF9FEFC5
:100AD0002CC022FF16C046815781248135814217E0
:100AE000530744F4A081B1819D012F5F3F4F3183B3
:100AF00020838C93268137812F5F3F4F3783268356
:100B000014C08B01EC01FB010084F185E02D0995F7
:100B1000892BE1F6D80116968D919C911797019635
:100B200017969C938E931697CE01DF91CF911F91CC
:100B30000F910895FA01AA27283051F1203181F14F
:100B4000E8946F936E7F6E5F7F4F8F4F9F4FAF4FD5
:100B5000B1E03ED0B4E03CD0670F781F891F9A1FE8
:100B6000A11D680F791F8A1F911DA11D6A0F711D9C
:100B7000811D911DA11D20D009F468943F912AE0A8
:100B8000269F11243019305D3193DEF6CF01089590
:100B9000462F4770405D4193B3E00FD0C9F7F6CFC1
:100BA000462F4F70405D4A3318F0495D31FD405289
:100BB000419302D0A9F7EACFB4E0A695979587951F
:100BC00077956795BA95C9F70097610571050895FE
:100BD0009B01AC010A2E06945795479537952795AA
:100BE000BA95C9F7620F731F841F951FA01D089542
:100BF000052E97FB16F400940FD057FD05D024D096
:100C000007FC02D046F408C05095409530952195D8
:100C10003F4F4F4F5F4F0895909580957095619528
:100C20007F4F8F4F9F4F089531D0A59F900DB49F58
:100C3000900DA49F800D911D11240895B7FFF4CF4E
:100C4000F3DF821B930B0895A1E21A2EAA1BBB1B94
:100C5000FD010DC0AA1FBB1FEE1FFF1FA217B30788
:100C6000E407F50720F0A21BB30BE40BF50B661F9E
:100C7000771F881F991F1A9469F760957095809562
:100C800090959B01AC01BD01CF010895A29FB001D9
:100C9000B39FC001A39F700D811D1124911DB29FB0
:0E0CA000700D811D1124911D0895F894FFCF51
:100CAE000100000001004F00202047414D45204F1C
:100CBE00564552202020202000202073636F72653D
:100CCE00203A202535642000202047414D45204301
:100CDE004C45415220202020002020202020202082
:0A0CEE0020202020202020202000DC
:00000001FF
